:040000000C94480014
:100004000C9400000C9400000C9400000C9400006C
:100014000C9400000C9400000C9400000C9400005C
:100024000C9400000C9400000C9400000C9400004C
:100034000C9400000C9400000C9400000C9400003C
:100044000C9400000C9400000C9400000C9400002C
:100054000C9400000C9400000C9400000C9400001C
:100064000C94000066A68243CDCC9243CDCCA4432D
:100074009A99AE4333F3C3430000DC4366E6F64388
:10008400CDCC02442000000368000000F894EE2761
:10009400EFBBF1E0F5BFE5BFE8E8F0E085919591AD
:1000A400009761F0A591B59105901590BF01F001FD
:1000B40005900D920197E1F7FB01F0CFEFEFEDBF53
:1000C400E8E0EEBFC0E0D3E00C94A800C1D02497D0
:1000D4001A930A93E0E4E0938000E9E0E09381005E
:1000E400EE81FF8168857985A0E0B4E284EF98E42D
:1000F400ABD1EA83FB836C837D83E9D08F01AA8132
:10010400BB818C819D81662777271AD1A6D04BD1DC
:10011400DF01CB01E0E0F0E060E07FE3D9D110F053
:100124000F5F1F4FF8013197EF2FF0E0E093890044
:10013400E02FE150E0938800198108812A96089500
:10014400E0E0E0938000299829980895EFEFEBB957
:10015400219A48990CC0A0910003B09101038091A9
:10016400020390910303B2DF489BFECFE9DF499974
:100174000CC0A0910403B0910503809106039091F3
:100184000703A4DF499BFECFDBDF4A990CC0A09193
:100194000803B091090380910A0390910B0396DF41
:1001A4004A9BFECFCDDF4B990CC0A0910C03B091BC
:1001B4000D0380910E0390910F0388DF4B9BFECFBC
:1001C400BFDF4C990CC0A0911003B0911103809132
:1001D4001203909113037ADF4C9BFECFB1DF4D994C
:1001E4000CC0A0911403B091150380911603909153
:1001F40017036CDF4D9BFECFA3DF4E990CC0A0917B
:100204001803B091190380911A0390911B035EDFC8
:100214004E9BFECF95DF4F990CC0A0911C03B0916B
:100224001D0380911E0390911F0350DF4F9BFECF4F
:1002340087DF8FCFFFCFF09560957095E195FF4FE5
:100244006F4F7F4F08956F2F660F660B762F0895BB
:100254009A938A93BA93AA930895182E862F612DA0
:10026400192E972F712D1B2EBF2FF12D1A2EAE2F65
:10027400E12D0895552342F4503811F4E0FF04C0F1
:100284003196691F791F6BF050E8572711F45F937B
:10029400CAC05F3F31F0660F000C57956795752F04
:1002A40008955F9300200AF0C9C0C2C050E8192E17
:1002B4001522880F991F9527550F879550E8072E0B
:1002C4000522660F771F7527550F67950895689463
:1002D40001C0E8945F93F2DF703818F07F3F08F4B0
:1002E400A2C056E1571BAAF4519558300EF4593068
:1002F40030F0EFEFFFEF6FEF7FE777F91AC0772762
:100304005523B9F0EE0FFF1F661F771F5A95D1F7DB
:1003140010C07727583028F0EF2FF62F672F58504A
:10032400F9CF552331F076956795F795E7955A956A
:10033400D1F700200AF47FDF5F910895689401C02B
:10034400E894309760407040B1F0002426F07723A1
:1003540012F4009470DF172E7EE1112032F07A95AA
:10036400EE0FFF1F661F111CF9CFEF2FF62F612D23
:100374005F938ADF5F9108954F93AF01FD01DA0126
:10038400AB01BC01CA01402D012C142E4F910895DC
:10039400EA0FFB1F681F0895E095F0956095EF5FE5
:1003A400FF4F6F4F08955F9381DF903849F150E814
:1003B4001526703821F1572F591B2BF112F4DCDF6D
:1003C400FACF583118F0AA27BB278827583028F0CD
:1003D400AB2FB82F88275850F9CF552329F086958D
:1003E400B795A7955A95D9F7502D512572F0D0DFBE
:1003F40038F46795F795E795739513F41FC0BCDF40
:1004040043DF5F910895D8F7FBCFEA1BFB0B680B22
:1004140051F010F40094C0DF662392F3EE0FFF1F37
:10042400661F7A95CBF7EE27FF27BF015F910895EA
:10043400EFEFFFEF6FE77FEF5F910895EFEFFFEFCF
:100444006FE77FE75F9108955F9330DF703821F4A1
:1004540011200AF4EDCFF2CF903809F4E4CF01244F
:100464000894970B1BF4D4F30020F3CF792F1F9338
:100474002F933F934F931124112722273327A90148
:1004840090E2AE17BF078607410730F0AE1BBF0BE3
:10049400860B410B089401C08894551F221F331FFB
:1004A400111CAA1FBB1F881F441F9A9551F7F901FD
:1004B400612D4F913F912F911F91662332F0550F7B
:1004C400EE1FFF1F661F7A954BF2D4DE5F910895ED
:1004D40099239AF0772342F0971748F029F4AE173E
:1004E400BF07860720F031F0989488940895989473
:1004F400089408951894889408957723C2F7971759
:1005040098F3A9F7EA17FB07680788F399F3ECCF88
:00000001FF
