:100000000C944D000C9400000C9400000C94000023
:100010000C9400000C9400000C9400000C946D00F3
:100020000C9400000C9400000C9400000C94000050
:100030000C9400000C9400000C9400000C94000040
:100040000C9400000C9400000C9400000C94000030
:100050000C9400000C9400000C9400000C94000020
:100060000C9400000C9400000000000066A682437F
:10007000CDCC9243CDCCA4439A99AE4333F3C34342
:100080000000DC4366E6F643CDCC024404000003E6
:100090006800200009036C000000F894EE27EFBB15
:1000A000F1E0F5BFE5BFECE8F0E0859195910097B0
:1000B00061F0A591B59105901590BF01F0010590F3
:1000C0000D920197E1F7FB01F0CFEFEFEDBFE8E014
:1000D000EEBFC0E0D3E00C94C6006A937A93AA9373
:1000E000BA93EA93FA93EFB7EA93A0E0B3E0D4D0DF
:1000F000EF5FFF4F6F4F7F4FD4D0E991EFBFF99182
:10010000E991B991A991799169911895CFD02497E6
:100110001A930A93E0E4E0938000E9E0E093810021
:10012000EE81FF8168857985A0E0B4E284EF98E4F0
:10013000B9D1EA83FB836C837D83F7D08F01AA81D9
:10014000BB818C819D816627772728D1B4D059D176
:10015000DF01CB01E0E0F0E060E07FE3E7D110F009
:100160000F5F1F4FF8013197EF2FF0E0E093890008
:10017000E02FE150E0938800198108812A960895C4
:10018000E0E0E0938000299829980895EFEFEBB91B
:10019000219AE2E0E093B000E093B100ECE7E09355
:1001A000B300E2E0E09370007894E0E0E09329038C
:1001B000E0E0E0930803A0910803A830F0F53FD0F9
:1001C000B1F5A0910903B0910A0380910B039091BE
:1001D0000C039CDFAEE13BD0F0E0E65DFC4FA0916C
:1001E0000803A083E0910003F091010360910203F2
:1001F00070910303E0930403F093050360930603F7
:10020000709307031CD0F1F3E0912903F0E0E2576B
:10021000FC4F0F01A0910403E0910003EA1BD00101
:10022000EC93AEDFAAE013D0EF5FE0932903E091F7
:100230000803EF5FE0930803BECFBACFFFCFE9B169
:10024000F0E0DF01E09108030FD0E1700895B0E025
:100250008DD1E09129030895F09560957095E19511
:10026000FF4F6F4F7F4F0895EE230E2EE8E01E2EB6
:10027000FD0161F0011430F0EF2FF0E0E7FDFFEF3A
:10028000011821F0F595E7950A94E1F708956F2F8D
:10029000660F660B762F0895ED91FD916D917D911E
:1002A00008957E936E93FE93EE9308959A938A93A6
:1002B000BA93AA930895182E862F612D192E972F81
:1002C000712D1B2EBF2FF12D1A2EAE2FE12D08956B
:1002D000552342F4503811F4E0FF04C03196691FF1
:1002E000791F6BF050E8572711F45F93CAC05F3F46
:1002F00031F0660F000C57956795752F08955F9341
:1003000000200AF0C9C0C2C050E8192E1522880F7B
:10031000991F9527550F879550E8072E0522660FE0
:10032000771F7527550F67950895689401C0E89465
:100330005F93F2DF703818F07F3F08F4A2C056E1F7
:10034000571BAAF4519558300EF4593030F0EFEFA6
:10035000FFEF6FEF7FE777F91AC077275523B9F0E2
:10036000EE0FFF1F661F771F5A95D1F710C0772732
:10037000583028F0EF2FF62F672F5850F9CF55231C
:1003800031F076956795F795E7955A95D1F7002066
:100390000AF462DF5F910895689401C0E894309791
:1003A00060407040B1F0002426F0772312F40094EE
:1003B00053DF172E7EE1112032F07A95EE0FFF1FEA
:1003C000661F111CF9CFEF2FF62F612D5F938ADF87
:1003D0005F9108954F93AF01FD01DA01AB01BC01BC
:1003E000CA01402D012C142E4F910895EA0FFB1FD6
:1003F000681F0895E095F0956095EF5FFF4F6F4F90
:1004000008955F9381DF903849F150E815267038E0
:1004100021F1572F591B2BF112F4DCDFFACF5831A1
:1004200018F0AA27BB278827583028F0AB2FB82F01
:1004300088275850F9CF552329F08695B795A79569
:100440005A95D9F7502D512572F0D0DF38F46795C1
:10045000F795E795739513F41FC0BCDF43DF5F91F9
:100460000895D8F7FBCFEA1BFB0B680B51F010F493
:100470000094C0DF662392F3EE0FFF1F661F7A958C
:10048000CBF7EE27FF27BF015F910895EFEFFFEF56
:100490006FE77FEF5F910895EFEFFFEF6FE77FE783
:1004A0005F9108955F9330DF703821F411200AF4D2
:1004B000EDCFF2CF903809F4E4CF01240894970BE4
:1004C0001BF4D4F30020F3CF792F1F932F933F9386
:1004D0004F931124112722273327A90190E2AE1749
:1004E000BF078607410730F0AE1BBF0B860B410BE1
:1004F000089401C08894551F221F331F111CAA1F86
:10050000BB1F881F441F9A9551F7F901612D4F9128
:100510003F912F911F91662332F0550FEE1FFF1F61
:10052000661F7A954BF2D4DE5F91089599239AF075
:10053000772342F0971748F029F4AE17BF078607D4
:1005400020F031F098948894089598940894089530
:100550001894889408957723C2F7971798F3A9F70A
:10056000EA17FB07680788F399F3ECCF109639F088
:10057000A8958AEF90E00197F1F71197C9F70895D0
:00000001FF
